S01400005045505F68665F7265666F726B2E733337E6
S1130000001000201913000035540000355400007E
S113001035540000355400003554000035540000B8
S1130020355400003554000035540000E100000050
S113003035540000355400001101000063550000E0
S11300404D210000355400003554000035540000A3
S11300503554000035540000355400003554000078
S11300603554000035540000355400003554000068
S11300703554000035540000355400003554000058
S11300803554000035540000355400003554000048
S1130090A904000035540000355400003554000014
S11300A03554000035540000355400003554000028
S11300B03554000035540000355400003554000018
S11300C03554000035540000355400003554000008
S11300D03554000035540000355400000000000081
S11300E0074B19680868B0E8F00F80F30988BFF37C
S11300F06F8F4FF0000080F311884EF00D0E7047A3
S1130100581800200000000000000000000000005B
S1130110EFF30980BFF36F8F0D4B1A6820E9F00FDE
S113012010602DE908404FF0600080F3118803F05F
S113013045FB4FF0000080F31188BDE808401968C2
S11301400868B0E8F00F80F30988BFF36F8F704739
S11301505818002010B5054C237833B9044B13B15B
S11301600448AFF300800123237010BD90110020D8
S1130170000000000869000008B5034B1BB10349E7
S11301800348AFF3008008BD000000009411002074
S113019008690000A3F5803A704700BF174B002B95
S11301A008BF134B9D46FFF7F5FF00218B460F4612
S11301B01348144A121A05F092FB0E4B002B00D080
S11301C098470D4B002B00D09847002000210400D5
S11301D00D000D48002802D00C48AFF3008004F055
S11301E0D5F82000290005F0DFF804F0BBF800BFC3
S11301F000000800000000000000000000100020C3
S113020090110020C03E002000000000000000000B
S1130210BFF34F8F0549064BCA6802F4E0621343EB
S1130220CB60BFF34F8F00BFFDE700BF00ED00E0E0
S11302300400FA052DE9F347264F274E72B63B78A2
S113024062B6002BFAD0254C4FF0FF31306802F033
S113025061FE234D2368DFF88C80DFF88C90D8F89A
S11302600020D9F80010009320482B4605F03CF8F4
S1130270DFF87CA01F4B8AF8000018680130186072
S113028005F09BF800233B709AF80030E3B131216C
S1130290194805F0F8F82268D9F8003045F82230FA
S11302A0931C2360D8F80030013245F822302368CB
S11302B03068102B02BF0122104B1A7000231A461B
S11302C0194602F08DFCB9E730210B4805F0DBF844
S11302D0EDE700BF131E0020EC110020F4110020F4
S11302E0FC1100200410002000100020AC1100209C
S11302F0141E0020F811002000E00040151E00200C
S113030008B5184C184E0A2003F032FA4FF0FF31AA
S1130310206802F0FFFD154B3168186800F018FBE7
S1130320134B144D1968144800F026FC2B7833B98C
S1130330002320681A46194602F052FCE3E700F055
S1130340A7FC00F0B7FC78210C4805F09CF862B6D5
S11303500B4A2B78002BEBD011787229FAD1FFF7D6
S113036057FF00BFEC1100200410002000100020F3
S1130370F4110020151E0020FC11002000E00040B4
S1130380121E002008B52A4D2A4C002003F06AFAF8
S11303904FF0FF31286802F0BDFD23782E2B02BFF9
S11303A00122254B1A702378722B01D1FFF730FFFD
S11303B02378772B05D1214A13680C2B2ADC0133CF
S11303C013602378732B05D11C4A1368012B25DD98
S11303D0013B13602378642B05D1194A1368052B5C
S11303E01FDC013313602378612B05D1144A136891
S11303F0002B1ADD013B136023782868A3F1650202
S1130400534253410F4A137000231A46194602F00F
S1130410E7FBBAE70D2BD4D10123D1E7DAD10D23C1
S1130420D7E7062BDFD10023DCE7E5D10623E2E79B
S1130430EC110020121E0020151E002004100020C4
S113044000100020131E002038B5114D2B78C3B1C5
S1130450104C4FF0FF31206802F05CFD0E4B186821
S113046004F0ABFF0D4800F0D1F8002320681A46D1
S113047019462B7002F0B4FBBDE83840002002F0AE
S11304807DBF074B1968074B186800F061FAF3E762
S11304908A100020EC110020F8110020AC1100207B
S11304A0041000200010002008B504230C480D4A55
S11304B08364C369DBB21370117804F0E4FF0A4B60
S11304C0186802F0B1FF48B14FF0E0234FF08052BA
S11304D0C3F8042DBFF34F8FBFF36F8F08BD00BF68
S11304E000E00040121E0020F0110020F0B589B099
S11304F0002000F0A5FC012005F00FF9364B002484
S11305001860002302260127344D1A46194602F0CA
S113051067FB23462946CDE90064A022304805F054
S11305208DF9304B2946CDE90063A02223462E489D
S113053005F084F923462946A022019400972B480C
S113054005F07CF923462946A022CDE90074284809
S113055005F074F9274A0721536C052043F400532E
S113056053643B46042201F091FE234E394623484E
S113057001F04EFA02AD3946214801F049FA0FCE96
S11305800FC596E8030085E803001E4D02A928461E
S113059002F044F904223B462146104601F076FE5F
S11305A023463A463946042001F070FE6B6D4FF441
S11305B0801243F480736B656B6D43F003036B65CA
S11305C00423AB64EB6C43F00403EB640E4BC3F8FD
S11305D080211A6009B0F0BDEC11002070680000A1
S11305E049040000F011002085030000010300000D
S11305F03502000000800C40F05B00000032040073
S113060000D2040000E0004000E100E070B590B0CA
S1130610044603F0DFFE434203F00F0300F00F0033
S113062058BF58420F2826D8DFE810F010002800E1
S11306303E0054006A0080009600AC00C200D8005E
S1130640EE0004011A01300146017A016D46A54EFF
S11306500FCE0FC50FCE0FC50FCE0FC596E80F00F6
S113066085E80F006A46231F3C3452F8041B43F804
S1130670041F9C42F9D1012010B070BD6D469A4E02
S11306800FCE0FC50FCE0FC50FCE0FC596E80F00C6
S113069085E80F006A46231F3C3452F8041B43F8D4
S11306A0041F9C42F9D1E6E76D46904E0FCE0FC56C
S11306B00FCE0FC50FCE0FC596E80F0085E80F00CB
S11306C06A46231F3C3452F8041B43F8041F9C421F
S11306D0F9D1D0E76D46864E0FCE0FC50FCE0FC5AC
S11306E00FCE0FC596E80F0085E80F006A46231F5A
S11306F03C3452F8041B43F8041F9C42F9D1BAE776
S11307006D467C4E0FCE0FC50FCE0FC50FCE0FC555
S113071096E80F0085E80F006A46231F3C3452F820
S1130720041B43F8041FA342F9D1A4E76D46724E9B
S11307300FCE0FC50FCE0FC50FCE0FC596E80F0015
S113074085E80F006A46231F3C3452F8041B43F823
S1130750041FA342F9D18EE76D46684E0FCE0FC534
S11307600FCE0FC50FCE0FC596E80F0085E80F001A
S11307706A46231F3C3452F8041B43F8041FA34267
S1130780F9D178E76D465E4E0FCE0FC50FCE0FC57B
S11307900FCE0FC596E80F0085E80F006A46231FA9
S11307A03C3452F8041B43F8041FA342F9D162E716
S11307B06D46544E0FCE0FC50FCE0FC50FCE0FC5CD
S11307C096E80F0085E80F006A46231F3C3452F870
S11307D0041B43F8041FA342F9D14CE76D464A4E6B
S11307E00FCE0FC50FCE0FC50FCE0FC596E80F0065
S11307F085E80F006A46231F3C3452F8041B43F873
S1130800041FA342F9D136E76D46404E0FCE0FC503
S11308100FCE0FC50FCE0FC596E80F0085E80F0069
S11308206A46231F3C3452F8041B43F8041FA342B6
S1130830F9D120E76D46364E0FCE0FC50FCE0FC54A
S11308400FCE0FC596E80F0085E80F006A46231FF8
S11308503C3452F8041B43F8041FA342F9D10AE7BD
S11308606D462C4E0FCE0FC50FCE0FC50FCE0FC544
S113087096E80F0085E80F006A46231F3C3452F8BF
S1130880041B43F8041FA342F9D1F4E66D46224E3B
S11308900FCE0FC50FCE0FC50FCE0FC596E80F00B4
S11308A085E80F006A46231F3C3452F8041B43F8C2
S11308B0041FA342F9D1DEE66D46184E0FCE0FC5D4
S11308C00FCE0FC50FCE0FC596E80F0085E80F00B9
S11308D06A46231F3C3452F8041B43F8041FA34206
S11308E0F9D1C8E6085C0000485C0000885C0000A0
S11308F0C85C0000085D0000485D0000885D0000E1
S1130900C85D0000085E0000485E0000885E0000CC
S1130910C85E0000085F0000485F0000885F0000B8
S11309206D460A4E0FCE0FC50FCE0FC50FCE0FC5A5
S113093096E80F0085E80F006A46231F3C3452F8FE
S1130940041B43F8041FA342F9D194E6C85F0000D6
S113095070B5013904460C2900F20A81DFE801F080
S113096007223446586A7C8EA0B1C2D3E400814D7C
S113097015F8103043F0010305F81030284600F054
S1130980EFFAC82002F0F4FE15F814306FF30003F8
S113099005F81430284600F0E3FABDE87040C8209A
S11309A002F0E6BE734D15F8103043F0020305F86B
S11309B01030284600F0D4FAC82002F0D9FE15F809
S11309C014306FF34103E3E76A4D15F8103043F038
S11309D0040305F81030284600F0C2FAC82002F0DB
S11309E0C7FE15F814306FF38203D1E7614D15F893
S11309F0103043F0080305F81030284600F0B0FA30
S1130A00C82002F0B5FE15F814306FF3C303BFE736
S1130A10584D15F8103043F0100305F810302846EF
S1130A2000F09EFAC82002F0A3FE15F814306FF30C
S1130A300413ADE74F4D15F8103043F0200305F8CB
S1130A401030284600F08CFAC82002F091FE15F808
S1130A5014306FF345139BE7464D15F8103043F0FF
S1130A60800305F81030284600F07AFAC82002F016
S1130A707FFE15F814306FF3C71389E73D4D05EB7E
S1130A8040046378284643F00103637000F068FA79
S1130A90C82002F06DFE63786FF30003637079E79A
S1130AA0344D05EB40046378284643F00203637039
S1130AB000F056FAC82002F05BFE63786FF341033E
S1130AC0ECE72C4D05EB40046378284643F008031B
S1130AD0637000F045FAC82002F04AFE63786FF3B1
S1130AE0C303DBE7234D05EB40046378284643F05A
S1130AF01003637000F034FAC82002F039FE637802
S1130B006FF30413CAE71B4D05EB400463782846D2
S1130B1043F02003637000F023FAC82002F028FE9B
S1130B2063786FF34513B9E7124D15F8103005EBF0
S1130B30440643F0400305F81030284600F010FA4C
S1130B407378284643F00403737000F009FAC82050
S1130B5002F00EFE15F8143028466FF3861305F8DC
S1130B60143000F0FDF973786FF38203737011E7AA
S1130B7070BD00BF041E0020F8B50026434C051DBF
S1130B804F1EB74200DCF8BD2B68013B0C2B13D879
S1130B90DFE803F007151C232A31383F485058601A
S1130BA0680055F8042C14F8123043F0010304F8DB
S1130BB01230364800F0D4F902360835E1E755F82A
S1130BC0042C14F8123043F00203F0E755F8042C17
S1130BD014F8123043F00403E9E755F8042C14F830
S1130BE0123043F00803E2E755F8042C14F81230ED
S1130BF043F01003DBE755F8042C14F8123043F0EB
S1130C002003D4E755F8042C14F8123043F0800381
S1130C10CDE755F8043C04EB43035A7842F0010253
S1130C205A70C6E755F8043C04EB43035A7842F083
S1130C300202F5E755F8043C04EB43035A7842F00A
S1130C400802EDE755F8043C04EB43035A7842F0FC
S1130C501002E5E755F8043C04EB43035A7842F0EC
S1130C602002DDE755F8042C084814F8123043F04C
S1130C70400304F8123000F073F955F8043C04EB17
S1130C8043035A7842F00402CAE700BF041E00205E
S1130C90F8B5074D072400272E463046013C25F8B9
S1130CA0027B00F05DF914F0FF04F6D1F8BD00BF3B
S1130CB0041E002010B5324CA378204643F02003D4
S1130CC0A37000F04DF9A378204643F01003A370FD
S1130CD000F046F9E378204643F02003E37000F087
S1130CE03FF9E378204643F00803E37000F038F955
S1130CF0A378204643F00203A37000F031F9A378EF
S1130D00204643F00403A37000F02AF92379204617
S1130D1043F00203237100F023F92379204643F0C2
S1130D200403237100F01CF9A379204643F0200347
S1130D30A37100F015F9A379204643F01003A371C1
S1130D4000F00EF9A379204643F08003A37100F06C
S1130D5007F9E379204643F00803E37100F000F952
S1130D60A379204643F00203A37100F0F9F8A379B4
S1130D70204643F00403A371BDE8104000F0F0B82E
S1130D80041E0020024A536E0342FCD1704700BF88
S1130D9000A0084010B50022284C1046214601F05E
S1130DA0ADFB21460022012001F0A8FB21460022D0
S1130DB0022001F0A3FB21460022032001F09EFB48
S1130DC021460022042001F099FB2146002205203F
S1130DD001F094FB21460022062001F08FFB2146FE
S1130DE00022072001F08AFB0022FF21104601F0B7
S1130DF0E1FB0022FF21012001F0DCFB0022FF21A6
S1130E00022001F0D7FB0022FF21032001F0D2FBD6
S1130E100022FF21042001F0CDFB0022FF21052048
S1130E2001F0C8FB0022FF21062001F0C3FBBDE84E
S1130E3010400022FF21072001F0BCBB00F00FF09E
S1130E4010B501210446224800F0E2FD03212148A7
S1130E5001F09CF84021204800F0BEFC012000F085
S1130E60E1FF01211D4800F0D3FD1D4B1D489A6A86
S1130E7000229A6201F06AFA0121082001F09CFA2A
S1130E800121102001F098FA0121802001F094FA48
S1130E9001214FF4807001F08FFA01214FF40070AA
S1130EA001F08AFA64B14FF4402001F0D7FB4FF40B
S1130EB0803001F073FA0C4AD36F43F00803D36710
S1130EC0FFF768FFBDE810404FF0FF30FFF75ABF4F
S1130ED0D0433E0002001E0080002A0000362C0091
S1130EE000A008400862000000800C400A46054B40
S1130EF0034493F8060193F80E1102B1012201F0A4
S1130F0067BA00BF086000002DE9F0410446124BA7
S1130F105A6E002AFCD10122DFF840801A66271D90
S1130F20464600253346227830782A4112F00102E1
S1130F3018BF0122D979013501F04AFA072D06F1CB
S1130F400106EFD10134A74208F10E08E8D10022CE
S1130F50014B1A66BDE8F08100A008408B10002008
S1130F602DE9F0410746124B5C6E002CFCD10122A6
S1130F70DFF840801A6646460025334637F81420C9
S1130F8030782A4112F0010218BF0122997B013501
S1130F9001F01EFA0E2D06F10106EED10134072CE4
S1130FA008F11C08E7D10022014B1A66BDE8F08164
S1130FB000A00840C310002038B50C46002800F0FB
S1130FC00C81013809286CD8DFE810F00A003900D8
S1130FD06D008E00A800C900F100F60002010701AF
S1130FE0924D6B5C6FF3000328462B55FFF78CFF83
S1130FF02B5D284643F002032B55FFF785FF2B5D3D
S1131000284643F004032B55FFF77EFF2B5D28464B
S11310106FF3C3032B55FFF777FF2B5D28466FF360
S113102004132B55FFF770FF2B5D6FF34513284610
S11310302B55FFF769FF2B5D6FF386132DE07B4D76
S11310406B5C284643F001036B54FFF75DFF2B5D97
S1131050284643F002032B55FFF756FF2B5D284625
S11310606FF382032B55FFF74FFF2B5D284643F0A8
S113107008032B55FFF748FF2B5D43F01003284668
S11310802B55FFF741FF2B5D6FF3451328462B5576
S1131090FFF73AFF2B5D43F0400328462B55FFF73B
S11310A033FF012038BD614D6B5C284643F00103DA
S11310B06B54FFF729FF2B5D284643F002032B55A1
S11310C0FFF722FF2B5D284643F004032B55FFF75F
S11310D01BFF2B5D284643F008032B55FFF714FF35
S11310E02B5D6FF30413CAE7504D6B5C6FF3000381
S11310F028462B55FFF708FF2B5D284643F00203D3
S11311002B55FFF701FF2B5D284643F004032B55B5
S1131110FFF7FAFE2B5D6FF3C30318E0434D6B5CDE
S1131120284643F001036B54FFF7EEFE2B5D28467F
S11311306FF341032B55FFF7E7FE2B5D284643F081
S113114004032B55FFF7E0FE2B5D43F0080328460C
S11311502B55FFF7D9FE2B5D6FF304131FE0334DBE
S11311606B5C28466FF300036B54FFF7CDFE2B5DD9
S11311706FF3410328462B55FFF7C6FE2B5D284627
S113118043F004032B55FFF7BFFE2B5D284643F0C5
S113119008032B55FFF7B8FE2B5D43F010032846D8
S11311A02B55FFF7B1FE2B5D43F020036EE71F4D77
S11311B06B5C43F0010317E71C4D6B5C284643F05E
S11311C001036B54FFF7A0FE2B5D43F00203D1E74C
S11311D0164D6B5C43F001038AE7144D2B5D2846E2
S11311E043F001032B55FFF78FFE2B5D284643F098
S11311F002032B55FFF788FE2B5D284643F00403BA
S11312002B55FFF781FE2B5D284643F008032B5531
S1131210FFF77AFE2B5D284643F010032B55FFF7AA
S113122073FE2B5D43F0200301E700BF161E002070
S113123010B500F07DFE01210F4800F0E9FB01220A
S11312400020114600F048FE01220C4C1146A36A0E
S1131250002023F4803323F0030343F00203A3624A
S113126000F03AFEA36A002023F4801323F00C0359
S113127043F00803A36210BDD0433E0000800C403D
S113128013B50122184B01A81A64184BD3F8FC407B
S113129001F0EEF9B4F1805F12D39DF80430022B13
S11312A00ED99DF80520022A01D1042B08D0104A3A
S11312B0D2F8C03023F0500343F01003C2F8C0301A
S11312C001F018FB00F022F801F002FB04F0E0F852
S11312D0FFF7AEFF01F0ECFA00F00CF802B0BDE845
S11312E0104001F069BB00BF00000C400081E00F1A
S11312F000800C4008B50121034800F089FBBDE8DB
S1131300084004F07FB800BF00D204000121014866
S113131000F07EBB00D2040008B500F0B9F8124B0F
S113132012498B4212D30020114B12498B4218D31D
S1131330FEF734FF186850F82240586840F82240FD
S1131340013298688242F5D30C33EAE70022F8E7C9
S11313501C6844F8220001325C68A242F8D30833C6
S1131360E4E70022F8E700BF106900001C690000F0
S11313701C6900001C69000000487047006CDC0216
S1131380254AD36A03F47053B3F5805F3AD0B3F5BA
S1131390005F04D0B3F5006F0BD1204B00E0204B6D
S11313A01B681D4A1068C0F382300130B3FBF0F0B3
S11313B07047D36803F4E063B3F5407F25D008D8C1
S11313C0B3F5807F0ED0B3F5007F20D0A3B1002306
S11313D0E7E7B3F5806F1CD0B3F5A06F114B18BFCE
S11313E00023DEE7104B1148D3F8FC20104BB2F178
S11313F0985F38BF0346D4E70B4B0E48D3F8FC2064
S11314000D4BF4E74FF40043CBE70C4BC9E70C4B0F
S1131410C7E70C4BC5E700BF00800C400C10002050
S113142010100020003FAB010081E00FC0CF6A0024
S113143040B5640040420F00804F1200809FD500E9
S1131440C0D8A700406F400108B5FFF799FF044BCF
S11314505B6803F00F03D840024B186008BD00BF5F
S113146000800C4008100020014B1868704700BF32
S11314700C100020044B1860044BDB6A1B0501D5DB
S1131480FFF7E2BF704700BF0C10002000800C4043
S1131490014A024B9A6070470000000000ED00E032
S11314A0014B1868704700BF101000200346054A1E
S11314B00549106803448B428CBF4FF0FF30136022
S11314C0704700BF141000200000022008B51A4B1A
S11314D05B6903F4E063B3F5407F16D00DD8B3F530
S11314E0807F22D0B3F5007F19D003B3134841F2B3
S11314F09C5103F0A6FF002010E0B3F5C06F18D094
S1131500B3F5E06FF2D10E4808E00E4B0E48D3F865
S1131510FC200E4BB2F1985F38BF184608BD094B4A
S11315200B48D3F8FC200B4BF4E70B48F6E70B48C9
S1131530F4E70B48F2E700BF00800C401C62000097
S1131540406F40010081E00F804F120040420F00C5
S113155040B56400C0CF6A00C0D8A700809FD50002
S1131560003FAB0110B5431EB3F5004F044604D24F
S1131570B4FA84F0C0F11F0010BD4FF45461034865
S113158003F05FFF002CF3D12020F3E76762000033
S1131590034B5A6DD20702D41A6D1042FCD1704726
S11315A000800C4008B5154BD3F8FC30C3F3074357
S11315B04A2B05D0792B03D0482B18D1104815E0BD
S11315C010491148D1F8E030D1F8E820D1F8EC10F6
S11315D01B0203F47C53C1F3031102F0F0020B432A
S11315E01343074AB3F5017F38BF104608BD0748C7
S11315F041F2185103F025FF0020F7E70081E00FC6
S11316000048E80100FF0FE000366E011C62000094
S113161010B50446FFF7C6FFA04210D2FFF7C2FF81
S1131620B4EB400F0ED90222012307498B67074907
S11316304B6823F4807343EA02234B6010BD0022FD
S11316401346F2E70122FBE70000904300800C40C0
S1131650134B5B6813F0060F03F00702114B01D024
S1131660042A18D1984212D800230F4A0F49024481
S11316708A420AD2002B14BF0323012308494A6873
S113168022F0070213434B6070475B00F6E7042324
S1131690F4E70523F2E79842FBD80123E5E700BF0E
S11316A000000C400048E801FFDB0BFF0024F400BD
S11316B070B541F67136064CE56BE663FFF75CFEE8
S11316C0ADB2FFF7C5FFB5421CBF0023E36370BD95
S11316D000000C4070B541F67136054CE56BE663CD
S11316E0ADB2FFF7B5FFB5421CBF0023E36370BD85
S11316F000000C4008B5C0F30313013B0C2B5BD86E
S1131700DFE803F0075A5A0D5A5A151E485A5A5A16
S113171018002B4B1868C0F38230013008BD284BE9
S1131720986800F00F00BDE8084003F092BE244B17
S11317305868F6E7224B5868C0F300200130F2E7FE
S1131740204B984220D00DD81F4B984212D003F55D
S11317508223984213D041F62F311C4803F071FEC6
S11317600120DBE71A4B9842F5D1154B986E00F037
S11317700300D8E7124B986EC0F30310D3E7104B65
S1131780986EC0F30320CEE70D4B986EC0F3013082
S11317900430C8E70F4B984206D003F5043398424F
S11317A005D041F64831D8E7054B186FDFE7044B05
S11317B0186FC0F30110B6E741F64F31CDE700BF13
S11317C000800C4080002A00801612001C62000079
S11317D080062E0090071A0010B5C0F30313013BD6
S11317E00C460C2B00F20581DFE813F00D00030119
S11317F0030125000301030144006700D100030134
S11318000301030138004C1E072C04D941F67C3136
S1131810794803F016FEFFF74BFF784B196821F463
S1131820E03141EA84341C60FFF70EFEBDE810404D
S11318300021FFF74FBF4B1EB3F5007F04D341F6E1
S11318408F316D4803F0FDFD2046FFF78BFE6B4A98
S1131850936823F00F030343936010BD0846FFF71A
S113186081FE664A0138536823F4807343EA0023F7
S11318705360F2E74B1EB3F5007F04D341F6A53164
S11318805D4803F0DEFDFFF713FFFFF7DDFDB0FB5E
S1131890F4F0FFF7BDFE2046FFF764FE574A536895
S11318A023F00F0303435360FFF7CEFD0021FFF73E
S11318B011FFBDE81040FFF7ABBE514B98424FD02B
S11318C00DD8504B984220D003F58223984232D051
S11318D041F6FE31BDE81040474803F0B2BD4A4B23
S11318E09842F5D1082904D941F6F031424803F071
S11318F0A8FD0420FFF74CFE2046FFF733FE3F4AC5
S1131900936E23F00303034313E0B1F5004F04D9AE
S113191041F6C331384803F094FD0420FFF738FE44
S11319202046FFF71FFE354A936E23F0F00343EA87
S11319300013936691E7B1F5004F04D941F6D13114
S11319402D4803F07EFD0420FFF722FE2046FFF71A
S113195009FE2A4A936E23F4706343EA0023E8E7FE
S1131960A1F11003702B04D94FF4DF51224803F086
S113197068FD0420FFF70CFE2046FFF7F3FD1F4A25
S11319800438936E23F4405343EA0033D1E71F4BEA
S1131990984206D003F50433984216D041F6244108
S11319A098E7082904D941F60741134803F049FD93
S11319B04020FFF7EDFD2046FFF7D4FD0F4A136FDB
S11319C023F003030343136747E7082904D941F6C7
S11319D01641094803F035FD4020FFF7D9FD2046A4
S11319E0FFF7C0FD054A136F23F0300343EA0013E9
S11319F0E9E741F62A416DE71C62000000800C40D3
S1131A0080002A008016120080062E0090071A001B
S1131A1070B5C0F30323013B04460E46092B23D8BB
S1131A20DFE803F029051522222C1C22221F0020A6
S1131A30144DC4F3043408B1FFF7AAFD05F142457F
S1131A4005F5801504EBC504A400266070BDFFF7FE
S1131A50FBFCFFF7DDFD0C4D0020EAE710200B4DE9
S1131A60E7E700200A4DE4E741F6B041BDE87040E5
S1131A70084803F0E6BC0020074DDAE70120074DD3
S1131A80D7E700BF44800C4040800C4060800C408D
S1131A9078800C401C62000008800C4058800C4088
S1131AA008B500F00F00013806284CD8DFE800F034
S1131AB00414254B4B333B00294BDB6A03F470536E
S1131AC0B3F5805F4AD0B3F5005F45D0B3F5006F3E
S1131AD014BF0520042008BD214A936A03F00303C0
S1131AE0013B022B02D81F4AD05CF4E7936A13F43B
S1131AF0803F0CBF01200A20EDE7194A936A03F0E6
S1131B000C03082B28D00C2B24D0042B26D0936A4A
S1131B1013F4801FEDE7124B1B6813F0805F0CBFBA
S1131B2007200920D7E70E4BDB6A03F46033B3F5D3
S1131B30803F11D0B3F5003F10D0B3F5004F14BF70
S1131B4001200920C7E7084842F2012103F079FC8B
S1131B500020C0E70620BEE70220BCE70320BAE766
S1131B6000800C40B26200001C62000038B52F4BAC
S1131B700446984207D02E4B984204D041F61301F4
S1131B802C4803F05EFC2046FFF78AFF274A0546EF
S1131B9094420DD0264B9C4215D041F64201254873
S1131BA003F04FFC032D39D8DFE805F03D171B1F68
S1131BB0214B9B6A03F00303013B022B1CD8DFE893
S1131BC003F00C1014001C4B9B6AC3F38103032B1A
S1131BD024D8DFE803F01302060ABDE8384003F016
S1131BE02ABCBDE83840FFF75BBCFFF72DFC134B64
S1131BF09C6F0134E04038BD944202D00C4B9C42AF
S1131C0011D10D4B986A094B9C420CBF102414242B
S1131C10E040F0D0BDE8384003F010BC41F66D015F
S1131C20044803F00EFC0020E5E700BF02001E009C
S1131C30030020001C62000000800C400000904360
S1131C4038B500F47813B3F5E01F054600F087803B
S1131C502ED8B3F5801F00F0918018D8B3F5802FEB
S1131C6050D006D87BB1B3F5003F53D04FF4EF51B9
S1131C707FE0B3F5602FF9D15048FFF711FF072833
S1131C807CD0092873D1BDE83840FFF779BBB3F5A0
S1131C90B01F43D0B3F5D01F5BD0B3F5901FE5D18F
S1131CA04748FFF763FF474B9B6EC3F303132FE0D3
S1131CB0B3F5281F3AD00DD8B3F5001F47D0B3F5BC
S1131CC0181F5FD0B3F5F01FD0D13D48BDE83840B0
S1131CD0FFF74CBFB3F5381F31D0B3F5781F63D08D
S1131CE0B3F5301FC2D13648FFF740FF354A936E33
S1131CF0C3F30133D840D36F03F007030133B0FBC0
S1131D00F3F006E0FFF73CFB2E4B9B6803F00F0358
S1131D10D84038BDBDE83840FFF796BB2848FFF7E8
S1131D2025FF284B9B6EC3F30323F1E72448FFF7F9
S1131D301DFF244B9B6EC3F301330433E8E72048B3
S1131D40FFF714FF1F4B9B6E03F00303E0E71E48ED
S1131D50BCE71D48FFF70AFF1A4B1B6FF4E71A484C
S1131D60FFF704FF174B1B6FC3F30113D0E741F2D6
S1131D70D651164803F065FB0020CAE7BDE8384099
S1131D80FFF7A4BB1248FFF78BFE032808D00928ED
S1131D903FF479AF0228EFD1BDE83840FFF780BBAC
S1131DA0BDE8384003F047BBFFF74EFB0446284626
S1131DB0FFF7A0FCB4FBF0F0ABE700BF06000E0099
S1131DC002001E0000800C40030020001C62000082
S1131DD00723260010B504461120FFF761FE0428EE
S1131DE004D142F64A110D4803F02BFB08230C4A98
S1131DF013621368E17823F4D16323F007030B43E0
S1131E00617843EA4123217843EA8103A1780029D8
S1131E1014BF802100210B43136010BD1C6200001D
S1131E2000800C4010B58028044604D942F6EA111B
S1131E30074803F006FB074B9A6D120706D4D86FC8
S1131E4004F0070420F007000443DC6710BD00BF62
S1131E501C62000000800C4070B505461120FFF79D
S1131E601FFE022804D142F60821154803F0E9FABE
S1131E704FF40073134E33622B78AC7813F0020FD7
S1131E8014BF4FF4005300236A78E40244EA824406
S1131E901C4303F0E2FA33685C4024F07F4424F4EA
S1131EA0730424F4474424F0FF045C40346003F0DA
S1131EB0D8FA2B78044A03F00103C2F8A03470BDA9
S1131EC01C62000000800C4000008C43014B188011
S1131ED0704700BF8810002010B4042806D80E4BA9
S1131EE051B90E4A32F810201A6212E042F6BB21B0
S1131EF00B4810BC03F0A5BA0A490B4C095C34F832
S1131F00100018622AB1094B0B449B001A68002A7E
S1131F10FCD010BC704700BF00800C40C4620000BD
S1131F201C620000B5620000BA6200006001E410A7
S1131F3008B5FFF737FB0130FFF76AFBFFF794FAA8
S1131F40104A114B984213684FF0020096BF23F0D9
S1131F50600343F0600343F0200313600122114641
S1131F60FFF7BAFFFFF7A4FB0222064B5A62FFF702
S1131F706BFAFFF74DFBFFF767FABDE80840002155
S1131F80FFF7A8BB00800C400048E80110B500F042
S1131F900F04631E062B00F2CD80DFE803F0044E2D
S1131FA04ECBCB91A3000239082940D8DFE801F0D9
S1131FB042051A313F3F3F3F3800012003240122EC
S1131FC01146FFF789FFFFF773FB5C4B5C62FFF779
S1131FD03BFA0446FFF71CFB2046BDE810400021F5
S1131FE0FFF778BBFFF7DEFA0130FFF711FBFFF7CD
S1131FF03BFA534B514A98424FF00200136804468F
S113200096BF23F0600343F0600343F020031360A2
S1132010D5E7FFF7C7FA0130FFF7FAFA0320CEE756
S113202042F22F41BDE81040464803F00ABA42F29A
S11320303441F7E700200424C1E70139092930D8E5
S1132040DFE801F032141C2F2F242F2F2F0501233A
S113205000213A48022C826A29D122F4803222F0EB
S113206003020A4342EA0343836210BD01220020B3
S11320701146FFF731FF00230221EAE7012211464E
S11320801046FFF729FF00230121E2E7FFF7DCF9FF
S1132090FFF7BEFA01222C4B0321C3F810280023BA
S11320A0D7E742F2DD41BDE700231946D1E71B051E
S11320B022F4801243EA810322F00C021343D3E793
S11320C0072904D0092908D042F23851AAE71B4A4B
S11320D0136823F080531360C7E7184A136843F06A
S11320E08053F8E703290FD0092919D002291ED1FA
S11320F0012200201146FFF7EFFE40220F4B5A62E7
S1132100DA6AD003FCD5B0E7012211461046FFF786
S1132110E3FE6022094B5A62DA6A9103FCD5A4E714
S11321202022064B5A62DA6A1204FCD59DE742F279
S1132130775177E742F26D6174E700BF00800C408D
S11321400048E8011C620000000090432DE9F84FAC
S11321501D4B1D68DB681D4004D54FF489711B4875
S113216003F06FF90227DFF86890DFF85CB0D9F864
S1132170388005EA080600244FF0010A19E0F30745
S113218015D5D9F808300AFA04F2CBF8082003EB85
S11321900413DA685AB1117A81F0010313721368D7
S11321A02BB1003918BF01212046526898477608A0
S11321B00134002EE3D1012F25EA080601D00127BE
S11321C0D9E7BDE8F88F00BF00300C40CE620000B4
S11321D000200C4010B5047983780949234304781E
S11321E0CA6A43EA0443C478407822F4803243EA5A
S11321F0440322F01F0243EA00131343CB6210BDD1
S113220000600C4038B5042804460D4616D905284C
S113221004D141F6FF73EB40DB0704D440F22D41B7
S1132220084803F00EF924200121444304F18044BA
S113223001FA05F504F5C044256138BD4FF6FF7376
S1132240E9E700BF1963000038B5042804460D46C9
S113225016D9052804D141F6FF73EB40DB0704D4FB
S113226040F2FE31084803F0ECF8242001214443F5
S113227004F1804401FA05F504F5C044656138BDF4
S11322804FF6FF73E9E700BF19630000F8B50428AF
S113229005460C4616461F4628D9052804D141F6A2
S11322A0FF73E340DB0704D44FF4B071194803F023
S11322B0C8F826B121462846DFB1FFF7A3FF24233F
S11322C0072C4FF00F0105FB03F315D8A00006FA05
S11322D000F281401048184403F0C6F8C6B92146FC
S11322E028468FB1BDE8F840FFF78CBF4FF6FF7367
S11322F0D7E7FFF7A9FFE2E7A4F10800800006FA98
S113230000F281400548E6E7BDE8F840FFF79CBFCE
S1132310F8BD00BF65630000046000400860004031
S113232070B51F2905460C46164603D99121064867
S113233003F087F805F1424000F5801004EBC00477
S1132340A400266070BD00BFB163000070B5114DDC
S113235004466E6818B946210F4803F072F82B68DA
S1132360E26823F001032B606368134326F48302BD
S113237022F01F021343227A1343627A1A43238AF8
S113238013436B6023781BB12B6843F001032B606C
S113239070BD00BF00A00840FC630000054AB0F512
S11323A0803F536823F4803308BF43F48033536081
S11323B0704700BF00A00840044B9A6811B1104355
S11323C09860704722EA0000FAE700BF00A00840C6
S11323D037B5072805460C4617DD40F295113648F7
S11323E0019203F02EF8272C019A5CDD4FF4CE7194
S11323F03148019203F025F8019A072D53D8DFE8FC
S113240005F0161A222A323A424A2729EEDC072816
S113241049D8DFE800F004101820283038401F297C
S113242005DC264803B0BDE83040FFF779BF2448F7
S1132430A4F12001F6E71F2CD9BF214621482248E8
S1132440A4F12001EEE71F2CD9BF21461F482048E4
S1132450A4F12001E6E71F2CD9BF21461D481E48E0
S1132460A4F12001DEE71F2CD9BF21461B481C48DC
S1132470A4F12001D6E71F2CD9BF214619481A48D8
S1132480A4F12001CEE71F2CD9BF214617481848D4
S1132490A4F12001C6E71F2CD9BF214615481648D0
S11324A0A4F12001BEE740F20621034803B0BDE8D1
S11324B0304002F0C6BF00BFFC63000040A00840EB
S11324C050A0084044A0084054A0084048A0084038
S11324D058A008404CA008405CA00840CCA008408C
S11324E0B4A00840D0A00840B8A00840D4A0084038
S11324F0BCA00840D8A00840C0A0084008B50728E0
S11325000BDD4FF41371294802F09BFFBDE808402E
S11325104FF42371254802F094BF0728F6D8DFE86A
S113252000F0040B12192029323B214B186C424055
S11325300A4042401A6408BD1D4B586C42400A4090
S113254042405A64F7E71A4B986C42400A404240B2
S11325509A64F0E7164BD86C42400A404240DA6471
S1132560E9E7134BD3F8CC0042400A404240C3F899
S1132570CC20E0E70E4BD3F8D00042400A40424062
S1132580C3F8D020D7E70A4BD3F8D40042400A401E
S11325904240C3F8D420CEE7054BD3F8D8004240DC
S11325A00A404240C3F8D820C5E700BFFC630000DE
S11325B000A00840072804DD40F2A521254802F0C8
S11325C040BF072844D8DFE800F0040B1219202983
S11325D0323B214B186D42400A4042401A65704715
S11325E01D4B586D42400A4042405A6570471A4B91
S11325F0986D42400A4042409A657047164BD86D28
S113260042400A404240DA657047134BD3F8B400A5
S113261042400A404240C3F8B42070470E4BD3F8FE
S1132620B80042400A404240C3F8B82070470A4B01
S1132630D3F8BC0042400A404240C3F8BC20704773
S1132640054BD3F8C00042400A404240C3F8C020C2
S1132650704700BFFC63000000A00840034A5368B1
S113266023F4E01303435360704700BF00A0084005
S113267010B5044618B957210F4802F0E2FE0F4A7C
S1132680D2F8E430D2F8E0109B0003F03C03C1F32D
S113269081110B43A370D2F8E03003F03F03637061
S11326A0D2F8E830D2F8EC2003F0F003C2F30312BE
S11326B01343237010BD00BF4764000000FF0FE008
S11326C02DE9F04180460E461F46154622B94FF4C7
S11326D0A171304802F0B5FE1EB92F48FFF7B0FAD9
S11326E00646402F2AD009D8A7B1202F1CD040F28B
S11326F08911BDE8F041274802F0A3BE602FF6D14E
S1132700B5EB960F04D940F28311224802F099FEEA
S113271004241DE0B5EB161F04D94FF4BA711D480B
S113272002F08FFE102413E0B5EBD60F04D940F26B
S11327307911184802F085FE082409E00624B6FB46
S1132740F4F3AB4204D24FF4BF71124802F079FEA5
S11327506C43610801EB8606B6FBF4F40F4E043CAF
S1132760B6EB841F4FEA841504D24FF4D0710948A4
S113277002F067FED8F80030354023F06003C8F853
S11327800030D8F800301F43C8F80070C8F814505F
S1132790BDE8F0819564000040810400C0FF1F0083
S11327A010B51B4B0446984214D003F5806398423D
S11327B010D003F5806398420CD003F5C0539842BF
S11327C008D003F58063984204D040F24241114896
S11327D002F037FE40F6AA6341F20502E3600023EB
S11327E02360626041F6F972A3606361E364A264EA
S11327F0074A6365944208BF2365A365064B9C4260
S113280003D003F580639C4201D10023E36510BD2E
S113281000C000409564000000C4004038B5224B5D
S1132820044698420D4614D003F58063984210D0B4
S113283003F5806398420CD003F5C053984208D046
S113284003F58063984204D040F2FD21174802F05A
S1132850F8FD2046FFF7A4FFAB7C1BB1236843F0CF
S113286080432360EB7C1BB12B7D43F01003A365F5
S11328702A8A6B7B20461343EA89134363602B7BCC
S1132880D5E90112FFF71CFF6B7D1BB1236843F4EC
S113289080332360AB7D1BB1236843F40043236082
S11328A02B78E36038BD00BF00C000409564000091
S11328B007B5064B18681B79009068468DF80430FC
S11328C0FFF788FC002003B05DF804FBE26400001D
S11328D007B5064B186801900548FEF7CBFD01A823
S11328E0FFF778FA002003B05DF804FBE76400000A
S11328F0006CDC0210B56FF00402A0210A480B4CF6
S113290012F0800FD3B21BBF03F00F03043BA318D4
S11329101B1802F101020CBF83F800131976272A51
S1132920EED1002010BD00BF00ED00E000E100E0AA
S113293073B502F092FD104D104B2E781C6802F016
S113294090FD02F01BFE60B1FF2E0AD00020297812
S113295001AA02F077FD18B18F21094802F071FD38
S1132960019C2CB902F079FD064B1C6802F079FD3C
S1132970204602B070BD00BF871100203C12002029
S1132980EB6400004012002010B50020144602F051
S113299091FD18B1BF21024802F053FD204610BD3D
S11329A046650000034B022218680023806819461C
S11329B001F04EBD24100020EFF3058373B9EFF34B
S11329C01082094B12B9EFF3118212B11A68022A6C
S11329D004D0186828B901221A6070476FF0050006
S11329E070474FF0FF3070472415002010B5EFF307
S11329F00583ABB9EFF310820C4B12B9EFF31182DC
S1132A0012B11A68022A0BD01A68012A0BD10024C9
S1132A10074AD47702221A6000F056FD204610BD02
S1132A206FF00500FBE74FF0FF30F8E724150020B6
S1132A3000ED00E040F67411014802F002BD00BF51
S1132A40B0650000034B0360034B0B60A0231360CD
S1132A50704700BFC414002044120020034B0360DD
S1132A60034B0B60A0231360704700BFA81700201E
S1132A702815002038B50D46044620B94FF48D7151
S1132A801A4802F0DEFC01F02BFBD4E90F314B4372
S1132A902268D0185B1A1344A060E3600020FF236F
S1132AA0A063626084F8443084F84530A5B9236992
S1132AB073B104F1100000F067FF48B14FF0E02358
S1132AC04FF08052C3F8042DBFF34F8FBFF36F8FC5
S1132AD001F024FB012038BD04F1100002F050FD88
S1132AE004F1240002F04CFDF2E700BF126600007E
S1132AF0F7B50D4616461C46074620B940F2551157
S1132B00194802F09EFC24B940F25911164802F00B
S1132B1098FC26B325B940F25D11134802F091FCEC
S1132B2050230193019B502B04D04FF4B3710E48F2
S1132B3002F087FC019B7CB10121002D08BF2646D1
S1132B402046C4E90F7584F846102660FFF792FF0B
S1132B509DF8203084F84C30204603B0F0BD002DA1
S1132B60DED04FF4AF71D8E712660000F8B50D4619
S1132B701746064620B940F29311184802F061FC4A
S1132B8005FB06F485B1B4FBF5F3B34204D040F27F
S1132B909B11124802F055FC14F1510F04D94FF463
S1132BA0CF710E4802F04DFC04F1500001F062FBBD
S1132BB0044670B1002380F8463065B100F150033B
S1132BC001212046C4E90F652360FFF753FF84F811
S1132BD04C702046F8BD0346F2E700BF12660000C1
S1132BE02DE9F04385B00F461E460446019220B9F4
S1132BF040F219314C4802F024FC37B9236C23B15C
S1132C0040F21A31484802F01CFC022E07D1E36B53
S1132C10012B04D040F21B31434802F012FC00F0B7
S1132C204DFF30B9019B23B140F21E313E4802F002
S1132C3008FC4FF00008C14601F052FAA26BE36BA6
S1132C409A4201D3022E1BD132463946204602F065
S1132C50E3FC636A1BB104F1240000F095FE48B163
S1132C604FF0E0234FF08052C3F8042DBFF34F8F91
S1132C70BFF36F8F01F052FA012005B0BDE8F08375
S1132C80019D1DB901F04AFA0020F6E7B8F1000FE2
S1132C9002D102A800F0B6FE01F040FA00F05AFC9E
S1132CA001F01EFA94F84430FF2B08BF84F84490D6
S1132CB094F84530FF2B08BF84F8459001F02EFAB4
S1132CC001A902A800F0AAFE40BB01F009FAA26B18
S1132CD0E36B9A420FD101F021FA019904F110003B
S1132CE000F018FE204602F0E0FC00F0CFFC50B1EA
S1132CF04FF00108A0E701F011FA204602F0D5FCDC
S1132D0000F0C4FCF4E74FF0E0234FF08052C3F826
S1132D10042DBFF34F8FBFF36F8FE9E7204602F016
S1132D20C4FC00F0B3FCAFE7126600002DE9F843E1
S1132D30894690461F46044620B940F2ED312B489F
S1132D4002F07FFBB9F1000F06D1236C23B140F2EE
S1132D50EE31264802F075FB022F07D1E36B012BFD
S1132D6004D040F2EF31214802F06BFB01F058FA35
S1132D70EFF311864FF0600383F31188BFF36F8F75
S1132D80BFF34F8FA26BE36B9A4201D3022F2AD178
S1132D9094F845503A46494620466DB2A36B02F07A
S1132DA03BFC6B1C13D1636A0BB901200BE004F1EB
S1132DB0240000F0E9FD0028F7D0B8F1000FF4D0AA
S1132DC00120C8F8000086F31188BDE8F8837F2D40
S1132DD004D14FF48F61054802F033FB01356DB225
S1132DE084F84550E1E70020EDE700BF12660000DB
S1132DF02DE9FF410E460446019220B940F23C51B0
S1132E00434802F01EFB36B9236C23B14FF4A8618A
S1132E103F4802F016FB00F051FE30B9019B23B18C
S1132E2040F245513A4802F00CFB0027B84601F045
S1132E3057F9A56BE5B131462046013D02F021FC6E
S1132E40A563236973B104F1100000F09DFD48B13E
S1132E504FF0E0234FF08052C3F8042DBFF34F8F9F
S1132E60BFF36F8F01F05AF9012004B0BDE8F0817F
S1132E70019D1DB901F052F90020F6E717B902A827
S1132E8000F0C0FD01F04AF900F064FB01F028F9FC
S1132E9094F84430FF2B08BF84F8448094F84530FC
S1132EA0FF2B08BF84F8458001F038F901A902A876
S1132EB000F0B4FD00BB204602F0A3FBB0B10199C1
S1132EC004F1240000F026FD204602F0EEFB00F0A1
S1132ED0DDFB48B94FF0E0234FF08052C3F8042DD6
S1132EE0BFF34F8FBFF36F8F0127A0E7204602F097
S1132EF0DCFB00F0CBFBF7E7204602F0D6FB00F04A
S1132F00C5FB204602F07DFB0028EDD0B4E700BFEE
S1132F1012660000F0B585B00446019120B940F274
S1132F20CE51524802F08DFA236C23B140F2D251B3
S1132F304E4802F086FA00F0C1FD30B9019B23B17E
S1132F4040F2D751494802F07CFA00252F462E461C
S1132F5001F0C6F8A36BEBB1013BA363236813B97B
S1132F6000F082FEA060236973B104F1100000F048
S1132F700BFD48B14FF0E0234FF08052C3F8042D0D
S1132F80BFF34F8FBFF36F8F01F0C8F801252846B8
S1132F9005B0F0BD019B4BB925B140F21D6133482A
S1132FA002F04FFA01F0BAF80025F0E717B902A8C9
S1132FB000F028FD01F0B2F800F0CCFA01F090F82E
S1132FC094F84430FF2B08BF84F8446094F84530EB
S1132FD0FF2B08BF84F8456001F0A0F801A902A8FE
S1132FE000F01CFD50BB204602F00BFB00B323682D
S1132FF03BB901F075F8A06800F070FD054601F0DA
S11330008DF8019904F1240000F084FC204602F0BC
S11330104CFB00F03BFB48B94FF0E0234FF08052EB
S1133020C3F8042DBFF34F8FBFF36F8F01278FE7D2
S1133030204602F03AFB00F029FBF7E7204602F0B5
S113304034FB00F023FB204602F0DBFA0028EDD02D
S1133050002D9CD001F044F8616A19B1236B196802
S1133060C1F13801A06800F0B5FD9BE712660000CD
S113307010B50023064A52F833402CB942F83310F5
S113308002EBC303586010BD01330A2BF3D1FAE7F6
S1133090081800202DE9F041044601F021F8304BD6
S11330A0304E1A68304F01321A603568002D4BD10A
S11330B034601B68012B1FD1B8464046013502F02D
S11330C05FFA382D08F11408F7D1DFF8A080284DF5
S11330D0404602F055FA284602F052FA254802F01A
S11330E04FFA254802F04CFA244802F049FA244BDE
S11330F0C3F80080234B1D601420234A1368013356
S11331001360224A23641168E36A8B4200FB037054
S113311004F1040188BF136002F040FA00F0FEFFDE
S11331201B4B1B6873B13368DA6AE36A9A4209D2AB
S11331304FF0E0234FF08052C3F8042DBFF34F8FBC
S1133140BFF36F8FBDE8F081114B1B68002BD3D107
S11331503368DA6AE36A9A4298BF3460CCE700BF06
S1133160C41C00205818002064180020D81C00201B
S1133170EC1C00200C1D0020381D0020241D002004
S11331805C18002060180020D01C0020D41C0020F3
S1133190201D0020F8B50646144B154D1C68286800
S11331A00F46043002F01DFA731C07D137B12968A9
S11331B010480431BDE8F84002F0F0B92B68A419B6
S11331C05C6007D30C4B18682968BDE8F8400431EB
S11331D002F0F0B9094B18682968043102F0EAF9E1
S11331E0074B1A68A24288BF1C60F8BD4C1D002022
S11331F058180020241D0020601800205C180020AE
S1133200001D0020064A13681968064B19B94FF0CF
S1133210FF321A6070471268D2681268F9E700BF7B
S11332205C180020001D002010B5044620B940F2AF
S11332302A71084802F005F96269074B9A4207D1DE
S1133240A06A064B984203D0B0FA80F0400910BD42
S11332500020FCE76A660000241D00200C1D0020ED
S113326010B590F85D3004463BB9006B01F05AF894
S11332702046BDE8104001F055B8012BF9D0022BCF
S113328006D0BDE8104040F69771024802F0D9B864
S113329010BD00BF6A66000080B5134C134F144D77
S11332A0236873B9134B1B68012BF8D94FF0E02343
S11332B04FF08052C3F8042DBFF34F8FBFF36F8FCD
S11332C0EDE700F00DFFFB68DE68301D02F089F9C0
S11332D02B68013B2B602368013B236000F01EFF39
S11332E03046FFF7BDFFDBE7C81C0020381D002077
S11332F0C41C0020641800202DE9F04387B0054663
S1133300DDE90F940E4617469846B9F1000F04D133
S113331040F25521184802F094F824B940F256219D
S1133320154802F08EF860230593059B602B04D0AA
S113333040F25E21104802F084F8059BCCB1B9F14B
S1133340000F16D0022384F85D3004ABC4F830902B
S113335001930E9B284600933A4643463146029415
S113336002F010FA2046FFF795FE049807B0BDE876
S1133370F08300230493F8E76A66000070B50446FE
S1133380214D00F0ADFE04B92C68261D304602F034
S113339028F9A36A1BB104F1180002F022F91B4AB0
S11333A01368013313602B68A34222D131461848B5
S11333B002F0F4F8174A13680133136000F0AEFE0C
S11333C0154B1B68A3B12B68A34211D1134B1B6887
S11333D023B140F2DF41124802F033F84FF0E0230A
S11333E04FF08052C3F8042DBFF34F8FBFF36F8F9C
S11333F070BD0C4A20461368013B1360FFF730FF91
S1133400FFF700FFDAE700BF58180020D01C0020A7
S1133410381D0020C81C0020201D0020CC1C0020CA
S11334206A660000C41C0020F8B5054620B940F2C5
S11334308B711E4802F005F800F0F2FEEFF31187DD
S11334404FF0600383F31188BFF36F8FBFF34F8F87
S11334502846FFF7E9FE0446E0B1154B1C68ECB9B9
S1133460144BEA6A1B682E1DDB6A30469A4222BF5F
S11334700124114B1C6002F0B4F814200F4AEB6ACB
S113348011688B4288BF13600D4A314600FB03204C
S113349002F084F887F311882046F8BD094805F145
S11334A0180102F07BF80024F4E700BF6A6600000C
S11334B0CC1C002058180020501D0020D41C0020D3
S11334C0641800200C1D002010B588B0002407AA41
S11334D006A905A8CDE90544FFF7B4FA059B079AA8
S11334E00293069B1449CDE9004314482346FFF791
S11334F003FFA8B100F016FC012815D14FF06003BA
S113350083F31188BFF36F8FBFF34F8F4FF0FF32F8
S11335100B4B1A600B4B18600B4B1C6000F024FE25
S11335200A4B1B6808B010BD0130F9D140F64301C5
S1133530074801F086FFF3E7C266000099320000F5
S1133540001D0020201D00204C1D0020181000200C
S11335506A660000024A136801331360704700BFB3
S1133560CC1C0020014B1868704700BF4C1D002084
S11335702DE9F84F394B1B68002B69D1384B1D6876
S113358001351D609DB9374C23681B6823B140F693
S1133590C921354801F055FF344B22681968216070
S11335A01A60334A136801331360FFF72BFE314E60
S11335B000243368304F9D4210D214222F4B1B68D5
S11335C0DB6A5343FB58022B2D4B28BF01241B6895
S11335D0002B18BF01242046BDE8F88FDFF8849043
S11335E0DFF8A0A0D9F800301B681BB94FF0FF33F7
S11335F03360E2E7D9F80030DB68D3F80CB0DBF8CD
S11336000420954201D23260D7E70BF1040840460A
S113361001F0E7FFDBF828201AB10BF1180001F0E4
S1133620E0FF1423DBF82C00DAF800204146904236
S113363088BFCAF8000003FB007001F0AFFF0F4B16
S1133640DBF82C201968CB6A9A4228BF0124C9E709
S11336500D4A0024136801331360BCE7CC1C00201E
S11336604C1D00205C1800206A66000060180020D1
S1133670041D0020001D002064180020581800209C
S1133680501D0020D41C0020081D00202DE9F0410D
S11336902E4C236823B940F6B6012D4801F0D1FE23
S11336A000F01EFD2368013B236024682CB1002434
S11336B000F034FD2046BDE8F081264B1B68002B4A
S11336C0F5D0254D254EDFF898801DE0EB68DC68C9
S11336D0271D04F1180001F084FF384601F081FF32
S11336E01420E36A326800FB03809342394688BFA2
S11336F0336001F053FF1B4BE26A1B68DB6A9A429A
S113370002D30122184B1A602B68002BDED10CB1B6
S1133710FFF778FD154D2C6844B10127124EFFF7D1
S113372027FF00B13760013CF9D12C600E4B1B68B8
S1133730002BBCD04FF0E0234FF08052C3F8042D8F
S1133740BFF34F8FBFF36F8F0124B1E7CC1C002070
S11337506A660000C41C00200C1D0020D41C00203C
S11337606418002058180020501D0020081D002057
S113377010B5044650B94FF0E0234FF08052C3F81F
S1133780042DBFF34F8FBFF36F8F10BD094B1B6820
S113379023B140F24C51084801F053FE0021204669
S11337A0FFF7D8FEFFF7F6FCFFF770FF0028E2D022
S11337B0EBE700BFCC1C00206A6600002DE9F04155
S11337C0224B1A68224B1AB101221A60BDE8F0811B
S11337D0204E1A6033681B6B1A68B2F1A53F0BD1F7
S11337E05A68B2F1A53F07D19A68B2F1A53F03D157
S11337F0DB68B3F1A53F04D0306831683431FFF79A
S113380019F9154F154D3C68DFF8548014236343B0
S1133810E958EA1889B15168083349682B44994238
S113382008BF4B68516008BF5360142303FB045561
S11338306B68DB6833603C60C8E724B940F6044138
S1133840404601F0FEFD013CE0E700BFCC1C002037
S1133850501D002058180020D41C0020641800209B
S11338606A66000070B50446244D00F039FC04B9C2
S11338702C68261D304601F0B4FEA36A1BB104F186
S1133880180001F0AEFE31461D4801F087FE94F8A1
S11338905C301C4E012B04BF002384F85C3000F024
S11338A03DFC33682BB100F01BFCFFF7ABFC00F0D0
S11338B035FC2B68A34213D1336893B1124B1B68B8
S11338C023B14FF4E061114801F0BBFD4FF0E02358
S11338D04FF08052C3F8042DBFF34F8FBFF36F8FA7
S11338E070BD074A11680A4A1268914201D12B60DF
S11338F0F6E7BDE87040FFF761BF00BF581800202D
S1133900241D0020201D0020CC1C00206A6600001D
S1133910C41C002038B50D46044620B940F61E41AB
S1133920074801F08EFD074B20461968183101F055
S113393041FE2846BDE838400121FFF72BBC00BFFB
S11339406A6600005818002070B50E4614460546F5
S113395020B940F64D410A4801F073FD094B284651
S11339601968183101F01AFE002C214608BF3046B0
S1133970BDE8704018BF4FF0FF30FFF70BBC00BF2D
S11339806A6600005818002038B5C368DC6824B99A
S113399040F67D41144801F054FD04F11805284611
S11339A001F01FFE114B1B68DBB9251D284601F0F1
S11339B018FE0F4A14201168E36A8B42294688BF17
S11339C013600C4A00FB032001F0E8FD0A4BE26A95
S11339D01B68DB6A9A4285BF0120084B00201860EF
S11339E038BD29460648EFE76A660000CC1C002073
S11339F0D41C00206418002058180020501D0020FA
S1133A000C1D0020034B1B680360034B1B684360C1
S1133A10704700BF041D00204C1D002070B50D46EA
S1133A20044620B940F6F841144801F00AFD25B9CE
S1133A3040F6F941114801F004FD00F051FB104B30
S1133A4019682B685A1C17D00E48266800686268EB
S1133A50864208D08A4206D8002301242B6000F055
S1133A605DFB204670BD881A8342F5D95B1A134466
S1133A7020462B60FFF7C6FF0024F0E76A660000CB
S1133A804C1D0020041D00200122014B1A607047C8
S1133A90501D0020012906DC08B9044B18681431B4
S1133AA050F8210070470020704700BF58180020CC
S1133AB0014B1868704700BF58180020054B1B685D
S1133AC033B1054B1B68002B0CBF0220002070474C
S1133AD001207047201D0020CC1C0020F8B50446AE
S1133AE038B31A4DC36A2A68D26A934226D28269CD
S1133AF0174E002AA1BF2A68D26AC2F13802826135
S1133B00142202FB036342699A4213D1071D38460B
S1133B1001F067FD14202B680E4ADB6A116800FB74
S1133B2003608B42E362394688BF136001F036FDBF
S1133B300120F8BD2B68DB6AC362F9E72B68806C4F
S1133B40DC6AA0422CBF00200120F2E758180020B4
S1133B5064180020D41C002038B5044608B900209D
S1133B6038BD184B1B68834204D041F24A01164801
S1133B7001F067FCE36C23B941F24B01124801F0F8
S1133B8060FCE36CE16AA26C013B9142E364E6D021
S1133B90002BE4D1251D284601F023FD1420A36C3D
S1133BA0C3F13802A261094AE36211688B4288BFFB
S1133BB01360074A294600FB032001F0EFFC0120B3
S1133BC0CEE700BF581800206A660000D41C00200D
S1133BD06418002070B50D46044600283BD0C36C21
S1133BE023B941F29A011C4801F02BFCA16CE36A51
S1133BF08D4238BF0D46AB422DD0E36C012B2AD148
S1133C00164B1B68A34204D141F2B501124801F0DE
S1133C1018FCA269E36A002A4FF01402E562A4BF0B
S1133C20C5F13805A5610E4D02FB035362699A4242
S1133C3011D1261D304601F0D4FC1420094AE36A50
S1133C40116800FB03508B423146BDE8704088BFC9
S1133C50136001F0A3BC70BD6A6600005818002010
S1133C6064180020D41C0020044B1A681AB1196887
S1133C70CA6C0132CA641868704700BF5818002023
S1133C80F7B5114C00F02CFA2568BDB90F4F104E52
S1133C90384601F075FC304601F072FC0D4B1021E2
S1133CA01F600D4B0A201E600C4A0D4B0095FEF759
S1133CB01FFF206010B10B49FFF7DAF903B0BDE82C
S1133CC0F04000F02BBA00BFD81D00205C1D00207E
S1133CD0701D0020541D0020581D00201A1E0020B5
S1133CE0881D0020C766000008B59142416000614C
S1133CF00AD8D21A83699A420DD2084B011D18685A
S1133D0001F058FC002008BD9A4201D2994202D227
S1133D10034B011DF3E70120F5E700BF581D002008
S1133D20541D002010B588B0FFF7AAFF114B1B6883
S1133D30CBB1002407AA06A905A8CDE90544FEF7DE
S1133D408DFE059B079A0293069B0B49019328233A
S1133D500A4800932346FFF7CFFA094B186010B1C5
S1133D60012008B010BD07484FF48D7101F069FBC4
S1133D700020F6E7D81D0020CC660000953E000028
S1133D80DC1D0020D46600002DE9FF410C4690465E
S1133D901E46054620B940F28F11104801F051FB30
S1133DA00F4F386880B1052CCDE9004802950EDC30
S1133DB0FFF784FE0023022818BF1A46694608BF8D
S1133DC00A9A3868FEF70CFF04B0BDE8F0810023BE
S1133DD032466946FEF7AAFFF6E700BFD466000044
S1133DE0D81D00202DE9F04F85B00646FFF7BAFB39
S1133DF0DFF890800546D8F8003083423FD94FF071
S1133E000009214FDFF884A03B681A685AB9204A98
S1133E10116813600123396028463360C8F80050E4
S1133E2005B0BDE8F08FDB68DC68D3F800B0211D75
S1133E300846039101F0D5FB236A2046984794F87D
S1133E402830039913F0040FDED0A3695B449B452B
S1133E5005D238686360246101F0ACFBD4E7002329
S1133E605A4619462046CDF80090FFF78DFF0028EA
S1133E70CAD140F2B631504601F0E3FAC4E7002358
S1133E80CAE700BF841D0020541D0020D466000032
S1133E90581D00202DE9F04788B06D4F6D4E3B68EA
S1133EA01D68002D57D00024DB681D68FFF752FB06
S1133EB004A8FFF797FF049B8246DFF89C81002B40
S1133EC06CD1002C4ED1A84252D3FFF7DFFB3B68E4
S1133ED0DB68D3F80C9009F1040001F082FB99F837
S1133EE02830580739D5D9F818102B465246484679
S1133EF02944FFF7F9FE60B123462A462146484685
S1133F000094FFF741FF20B940F22121304601F02F
S1133F1098FA4846D9F8203098470022D8F800008B
S1133F2004A9FEF765FF0028B9D0049B0698002B6E
S1133F3037DB069C6369002B3AD103A8FFF752FFD5
S1133F40049B0546092BE8D8DFE803F03636365DD6
S1133F50647A36365D640124A8E723F0010389F806
S1133F602830D6E73D4B1B681C68B4FA84F4640916
S1133F702246D8F80000A5EB0A0101F0E0FBFFF7A8
S1133F8085FB0028C9D14FF0E0234FF08052C3F8DD
S1133F90042DBFF34F8FBFF36F8FBEE7FFF776FBA0
S1133FA0BBE7059B07999847049B002BB5DBC0E74B
S1133FB0201D01F016FBC0E794F82830A16943F0F6
S1133FC0010384F82830059B024619442046FFF774
S1133FD08BFE0028A1D0236A2046984794F8283005
S1133FE059079AD50023A269059920460A440093EB
S1133FF01946FFF7C9FE00288FD140F243313046FD
S113400001F01FFA89E794F8283023F0010384F8BB
S1134010283082E794F8283043F0010384F82830EC
S1134020059BA36123B94FF45771304601F009FA97
S1134030A1692B462A4620462944FFF755FE6CE722
S113404094F828309A07E0D4204600F06BF964E72E
S1134050541D0020D4660000D81D0020581D0020E7
S113406006480068006880F3088862B661B6BFF34A
S11340704F8FBFF36F8F00DF00BF000008ED00E03B
S113408007B5002301930B4B1B68013303D0D921DF
S1134090094801F0D6F94FF0600383F31188BFF3A8
S11340A06F8FBFF34F8F019B002BFCD003B05DF8E3
S11340B004FB00BF1C1000202D6700004FF080732C
S11340C040F8043C054B21F0010140F8081C40F87D
S11340D00C3C40F8202C4038704700BF8140000061
S11340E04FF0600383F31188BFF36F8FBFF34F8FDB
S11340F0084A13680133012B13600AD14FF0E023FF
S1134100D3F8043DDBB223B140F28711024801F039
S113411098B970471C1000202D67000010B5074C9B
S1134120236823B94FF4C771054801F08AF923685D
S1134130013B23600BB983F3118810BD1C100020D0
S11341402D6700004FF0E02200234FF47A711361D1
S11341509361044B1B68B3FBF1F3013B53610723E9
S1134160136170470810002013B5284B284C1A78A7
S1134170D2B20192FF221A701B78264ADBB28DF864
S113418003309DF8033003F060031370072300220B
S113419023609DF80310581E09062DD412B1042B78
S11341A0236004D040F23F111B4801F04AF9236810
S11341B0164A1B0203F4E0632360019B0024DBB274
S11341C013704FF0E023D3F8202D42F47F02C3F89C
S11341D0202DD3F8202D42F07F42C3F8202DFFF785
S11341E0B1FF0E4B1C60FFF73BFFFFF7E7FAFFF749
S11341F047FF204602B010BD9DF8033001225B004A
S1134200DBB28DF803300346C3E700BF00E400E0EF
S1134210E01D0020BA1E00202D6700001C100020A5
S113422008B5EFF305830F2B0AD90E4A9B5C0E4A9F
S113423012789A4204D940F2BB210C4801F001F9EA
S11342404FF0E0230A4AD3F80C3D126803F4E0630C
S1134250934206D9BDE8084040F2CB21034801F05F
S1134260F0B808BDF0E300E0BA1E00202D6700009E
S1134270E01D0020F8B50446FFF76CF924480168F6
S113428071B941F6F875234B234A23F00703C2E9B9
S11342900031224AC3E900250123C2E90015036065
S11342A0631E0A3332D8083424F007020832A242CB
S11342B02CD91B4E3568AA4228D817490B68586870
S11342C0824201D91C68F4B9144CA3421ED01F6861
S11342D00C680F60811A102904F108040CD998188D
S11342E041605A6047680C4A11461268D2F804C00B
S11342F0BC45F9D3026008605B68ED1A3560FFF7CE
S1134300C5F92046F8BD19462346D8E70024F6E748
S1134310EC1D0020C31E0020F01D0020E41D002021
S11343202010002038B50446B0B1A0F10805FFF70D
S113433011F954F8041C094B1A461B685868884242
S1134340FAD344F8083C1560054A13680B4413601B
S1134350BDE83840FFF79AB938BD00BFF01D002012
S11343602010002008B5074B044613B10021AFF319
S11343700080054B1868836A03B19847204601F012
S1134380C4F800BF000000009C67000070B5002660
S11343900C4D0D4C641BA410A64209D101F01CFC69
S11343A000260A4D0A4C641BA410A64205D170BD18
S11343B055F8043B98470136EEE755F8043B984717
S11343C00136F2E7881100208811002088110020AE
S11343D08C110020164B10B51C68A36BB3B91820C0
S11343E000F0EAFA0246A06320B94E21114B1248AC
S11343F000F0F4F81149124BC0E90013114B0021ED
S113440083600B2383810120C2E90401A46B0E4A5B
S11344102069636942430D4901FB0322A0FB0101AA
S1134420431C42EB0100C4E9043020F0004010BDFD
S113443024100020A0670000B76700000E33CDAB46
S113444034126DE6ECDE05002DF451582D7F954CA9
S11344502DE9F7431D465D4B04461F680E46904602
S113446027B1BB6913B9384600F0D6F9584B9C42C2
S113447067D17C68B8F1020F06D0B8F1010F00F2E1
S11344809F80002DC0F29C80636EDB0705D4A38956
S1134490980502D4A06D01F060FA2146384600F078
S11344A03DF9616B41B104F14403994202D03846AD
S11344B000F08AFA002363630023A3616360A38985
S11344C0190603D53846216900F07EFAA389B8F1AC
S11344D0020F23F44A6323F00303A3816CD001ABDE
S11344E06A462146384601F03AFAA3891843A08166
S11344F0002D30D1009D284600F05EFA06460028C3
S113450055D1DDF80090A9454AD14FF0FF3500227E
S1134510A26004F14702226022610122B4F90C3046
S11345206261626E43F00203D207A38105D413F4DF
S1134530007F02D1A06D01F011FA284603B0BDE856
S1134540F083244B9C4201D1BC6893E7224B9C42EC
S113455008BFFC688EE7002ECDD0BB6913B938467E
S113456000F05AF9B8F1010F08BFA389C4E9046542
S113457004BF43F00103A381A289266012F008035B
S11345801CD0D30741BF00236D42A360A56158BF6F
S1134590A560656E15F0010515D112F4007FC8E71A
S11345A0484600F009FA06460028AED04D46A389D5
S11345B043F08003A381D0E70025A8E7A360E8E7E0
S11345C04FF0FF35B9E70025B7E700BF24100020FE
S11345D094680000B4680000746800001FB51446B5
S11345E01A46094B05461B68D8684CB1074BCDE900
S11345F0013400912B46064900F08CF901F0ADFA24
S1134600044B1C46F3E700BF24100020356800006B
S113461042680000706800008A89F8B505461007F2
S11346200C4657D44B68002B04DC0B6C002B01DCCC
S11346300020F8BDE66A002EFAD0002312F480525E
S11346402F682B6032D0606DA3895A0705D5636843
S1134650C01A636B0BB1236CC01A00230246E66ACE
S11346602846216AB047431CA38906D129681D291D
S11346702CD8294ACA40D60728D50022626022696C
S1134680D904226004D5421C01D12B6803B96065AA
S1134690616B2F600029CBD004F14403994202D00E
S11346A0284600F091F900206063C2E7216A0123E3
S11346B02846B047411CC7D12B68002BC4D01D2B02
S11346C001D0162B01D12F60B2E7A38943F0400338
S11346D0A381AEE70F69002FAAD0930718BF002368
S11346E00E6808BF4B69F61B0F608B60002E9FDDC0
S11346F033463A462846216AD4F828C0E0470028C1
S113470006DCA3894FF0FF3043F04003A38190E718
S11347100744361AEAE700BF0100402038B50B69A8
S113472005460C4613B90025284638BD18B18369DF
S11347300BB900F071F8144B9C421BD16C68B4F9AE
S11347400C30002BEFD0626ED00704D4990502D44C
S1134750A06D01F002F928462146FFF75DFF636E64
S11347600546DA07E0D4A3899B05DDD4A06D01F0EA
S1134770F5F8D9E7054B9C4201D1AC68DFE7044B5F
S11347809C4208BFEC68DAE794680000B468000053
S113479074680000002310B50446C0E90033C0E982
S11347A00433836081814366C28183611946082290
S11347B05C3001F094F8054B24626362044BA362FD
S11347C0044BE362044B236310BD00BFD55A0000C1
S11347D0F75A00002F5B0000535B0000014901F011
S11347E09CB800BF1D470000014801F0B6B800BFE7
S11347F0BC3E0020014801F0B1B800BFBC3E00201F
S1134800014801F0AAB800BFBD3E0020014801F0F4
S1134810A5B800BFBD3E002010B50446FFF7F0FF69
S1134820A3691BB1BDE81040FFF7F0BFC4E9123320
S11348302365134B134A1B68A262A34208BF0123DA
S1134840204608BFA36100F01FF86060204600F016
S11348501BF8A060204600F017F800220421E06055
S11348606068FFF797FF01220921A068FFF792FF14
S113487002221221E068FFF78DFF0123A361D1E733
S11348809C670000DD470000F8B50746FFF7ACFF62
S11348901E4B1E68B36913B93046FFF7BDFF483697
S11348A0D6E90134013B03D533680BB33668F7E727
S11348B0B4F90C50D5B9164B04F15800E3606566A1
S11348C001F04AF8FFF796FF08222946C4E901558A
S11348D0C4E904552560A56104F15C0000F0FFFF04
S11348E0C4E90D55C4E912552046F8BD6834D9E72A
S11348F00421384600F0FBFF044630600028D5D17F
S1134900FFF778FF0C233B60EEE700BF9C670000D5
S11349100100FFFF0EB403B5014603AB054853F88D
S1134920042B0068019300F02BF902B05DF804EB4E
S113493003B07047241000208B8973B59D07064689
S11349400C4607D504F14703236023610123636107
S113495002B070BD6A4601AB01F001F8009905464A
S1134960304600F099F848B9B4F90C309A05EFD400
S113497023F0030343F00203A381E3E70D4BB36287
S1134980A389206043F08003A381009B20616361BD
S1134990019B5BB13046B4F90E1000F04BFC28B11A
S11349A0A38923F0030343F00103A381A0890543F2
S11349B0A581CDE7DD470000024B0146186800F0F1
S11349C06BB800BF2410002038B50546002940D03C
S11349D051F8043C0C1F002BB8BFE41800F04CFC49
S11349E01C4A136833B9636014602846BDE8384034
S11349F000F048BCA34208D9206821188B4201BFAB
S1134A0019685B6809182160EDE71A465B680BB109
S1134A10A342FAD911685018A0420BD1206801446E
S1134A20501883421160E0D118685B68014411603A
S1134A305360DAE702D90C232B60D6E720682118EB
S1134A408B4201BF19685B68091821606360546078
S1134A50CBE738BDF81D002070B50E4E0C4631680A
S1134A60054611B900F0E2FA30602146284600F00C
S1134A70DDFA431C0AD0C41C24F00304A04207D06E
S1134A80211A284600F0D2FA013001D14FF0FF3448
S1134A90204670BDFC1D00202DE9F041CD1C25F001
S1134AA0030508350C2D38BF0C25002D074601DB06
S1134AB0A94205D90C2300263B603046BDE8F081AD
S1134AC02E4E00F0D9FB33681C4634BB29463846C9
S1134AD0FFF7C2FF431C04464DD134682646002E1E
S1134AE040D123683146384604EB030800F09EFAAF
S1134AF080453AD1216803356D1A25F00305083540
S1134B000C2D38BF0C2538462946FFF7A5FF013088
S1134B102BD023682B4423600EE02268521B1ED442
S1134B200B2A16D96119A342256018BF596063681E
S1134B3008BF316062514B60384604F10B0600F047
S1134B40A1FB26F00706231DF21AB6D09B1BA35027
S1134B50B3E76268A3420CBF32605A60ECE72346B5
S1134B606468B2E734467668B9E70C2338463B609C
S1134B7000F088FBA1E72560DEE700BFF81D0020F8
S1134B802DE9F04F0D461446984606469DB018B1DF
S1134B9083690BB9FFF740FE894B9D421BD17568B1
S1134BA06B6ED90705D4AB899A0502D4A86D00F0C1
S1134BB0D4FEAB891B0701D52B69EBB929463046D6
S1134BC000F0A8FAC0B16B6EDC070ED54FF0FF30D1
S1134BD01DB0BDE8F08F7B4B9D4201D1B568DFE786
S1134BE0794B9D4208BFF568DAE7AB899805EDD4A7
S1134BF0A86D00F0B3FEE9E70023099320238DF8A4
S1134C00293030234FF00109CDF80C80DFF8BC8146
S1134C108DF82A3023469A4613F8012B0AB1252A27
S1134C20F9D1BAEB040B0BD05B4622462946304639
S1134C3000F0CFFE013000F0AA80099A5A4409928C
S1134C409AF80030002B00F0A28000234FF0FF32CE
S1134C50CDE905230AF1010A049307938DF8533033
S1134C601A935446052214F8011B584800F07CFF9F
S1134C70049AD8B9D10644BF20238DF853301307C2
S1134C8044BF2B238DF853309AF800302A2B15D0CB
S1134C90544600204FF00A0C079A214611F8013BB4
S1134CA0303B092B4ED9B0B1079214E0A0EB0803B6
S1134CB009FA03F31343A2460493D2E7039B191D95
S1134CC01B680391002BBBBF5B4242F002020793B7
S1134CD00793B8BF049223782E2B0CD163782A2B28
S1134CE035D1039B02341A1D1B680392002BB8BFF5
S1134CF04FF0FF330593DFF8D8A003225046217804
S1134D0000F032FF40B14023A0EB0A0003FA00F0A8
S1134D10049B01340343049314F8011B06222D4819
S1134D208DF8281000F020FF00283FD02A4B1BBB31
S1134D30039B073323F0070308330393099B3B4486
S1134D40099367E70C4601200CFB0232A5E7002318
S1134D504FF00A0C194601340593204610F8012B34
S1134D60303A092A03D9002BC5D00591C3E704467C
S1134D7001230CFB0121F0E703AB00932A463046E4
S1134D80164B04A9AFF300800746781CD6D16B6E8E
S1134D90D90705D4AB899A0502D4A86D00F0DEFDCD
S1134DA0AB895B063FF512AF099811E703AB00939B
S1134DB02A463046094B04A900F012F8E4E700BF84
S1134DC094680000B468000074680000D4680000AF
S1134DD0DA680000DE68000000000000D35900001B
S1134DE02DE9FF470F7E9146782F80460C469A4660
S1134DF00C9D01F1430207D8622F0AD8002F00F05E
S1134E00D980582F00F0A48004F1420584F8427040
S1134E103AE0A7F16303152BF6D801A151F823F06A
S1134E20794E00008D4E0000094E0000094E00002E
S1134E30094E0000094E00008D4E0000094E00008E
S1134E40094E0000094E0000094E00009B4F00006F
S1134E50BD4E00007D4F0000094E0000094E0000C9
S1134E60BD4F0000094E0000BD4E0000094E000079
S1134E70094E0000854F00002B681A1D1B682A602C
S1134E8004F1420584F842300123A4E02068296833
S1134E90060601F104030AD50E682B60002E03DA1E
S1134EA02D23764284F843300A235E4819E00E68C5
S1134EB010F0400F2B6018BF36B2EFE72B68206864
S1134EC0191D2960010601D51E6802E04606FBD5BE
S1134ED01E886F2F0CBF08230A235248002184F830
S1134EE043106568002DA8BF2168A560A4BF21F008
S1134EF0040121600EB9002D4DD01546B6FBF3F127
S1134F0003FB1167C75D05F8017D3746BB420E46BA
S1134F10F4D9082B0BD12368DE0708D5236961680F
S1134F209942DEBF302305F8013C05F1FF35521BE1
S1134F3022614B4621464046CDF800A003AA00F06A
S1134F405AFD01304CD14FF0FF3004B0BDE8F0877A
S1134F50344881F845702968236851F8046B296046
S1134F601D0614D5DF0744BF43F0200323601EB998
S1134F70236823F0200323601023AFE7236843F062
S1134F80200323607823284884F84530E3E7590652
S1134F9048BFB6B2E6E71546BBE72B682668181D7E
S1134FA06169286035061B6801D5196002E0700646
S1134FB0FBD51980002315462361BAE72B6800212D
S1134FC01A1D2A601D686268284600F0CDFD08B1EC
S1134FD0401B606063682361002384F84330A8E7C2
S1134FE02A46494640462369D0470130ABD023685E
S1134FF09B0713D4E068039B9842B8BF1846A4E704
S11350000123324649464046D04701309BD0013502
S1135010E36803995B1AAB42F2DCEBE7002504F189
S11350201906F5E7E5680000F668000038B50023C6
S1135030054D044608462B60FCF738FA431C02D1A0
S11350402B6803B1236038BD001E0020F8B50E465E
S11350501446054618B183690BB9FFF7DDFB214BF4
S11350609C422BD16C68A369A360A3891A072FD52E
S113507023696BB323692068F6B2C01A63693746A3
S1135080834204DC21462846FFF748FB30BBA36873
S11350900130013BA36023685A1C22601E706369BF
S11350A0834204D0A389DB0706D50A2E04D1214606
S11350B02846FFF733FB88B93846F8BD0A4B9C42B3
S11350C001D1AC68CFE7094B9C4208BFEC68CAE742
S11350D02146284600F01EF80028CBD04FF0FF37B9
S11350E0EAE700BF94680000B46800007468000038
S11350F038B50446084611460022054D2A601A4672
S1135100FDF742FC431C02D12B6803B1236038BD78
S1135110001E0020324B70B51D6806460C4625B1B2
S1135120AB6913B92846FFF777FB2E4B9C420FD18E
S11351306C68A389B4F90C2019072CD4DD0611D4AA
S11351400923336042F040034FF0FF30A3813EE077
S1135150254B9C4201D1AC68EBE7244B9C4208BF31
S1135160EC68E6E7580712D5616B41B104F14403DA
S1135170994202D03046FFF727FC00236363A389DA
S113518023F02403A3810023636023692360A3899C
S113519043F00803A38123694BB9A38903F4207363
S11351A0B3F5007F03D021463046FFF7C5FBA08945
S11351B0B4F90C2010F001030AD00023A360636942
S11351C05B42A361236943B910F08000BAD170BD7A
S11351D0810758BF6369A360F4E70020F7E700BFC5
S11351E02410002094680000B46800007468000073
S11351F038B50023054D044608462B6000F083F9BA
S1135200431C02D12B6803B1236038BD001E00206B
S113521038B50023064D0446084611462B6000F0BD
S113522075F9431C02D12B6803B1236038BD00BF5C
S1135230001E002038B50023054D044608462B60A7
S113524000F06BF9431C02D12B6803B1236038BD15
S1135250001E002038B50446084611460022054DBC
S11352602A601A4600F05EF9431C02D12B6803B190
S1135270236038BD001E0020014800F06EBB00BF53
S1135280BB3E0020014800F069BB00BFBB3E0020CC
S113529038B50446084611460022054D2A601A46D0
S11352A000F042F9431C02D12B6803B1236038BDDE
S11352B0001E0020024B0146186800F063BC00BFCA
S11352C02410002038B50023064D04460846114634
S11352D02B6000F024F9431C02D12B6803B1236036
S11352E038BD00BF001E00202DE9F8430024054608
S11352F00E4690469946089F20460121FBF7F6FD8D
S113530001346420FEF734FA082CF5D1002409F1A5
S11353100403BC4224DD00232A1D55F82310B142A6
S113532036D152F82310414532D1052500242046B8
S113533001210134FBF7DAFD082CF8D16420FEF7D3
S113534017FA0024204600210134FBF7CFFD082C76
S1135350F8D16420FEF70CFA013DE7D1012013E0F7
S113536059F82420B24211D153F8242042450DD1DA
S1135370002420460021FBF7B9FD01346420FEF728
S1135380F7F9082CF5D10020BDE8F8830234C0E712
S11353900233102BC1D10024204600210134FBF735
S11353A0A5FD082CF8D1EEE708B500F0CBF8FBF723
S11353B09DF800F0D4F8002008BD70B54FF47A765B
S11353C090FBF6F5044603212846FBF7F5FD06FBA2
S11353D015406425022190FBF5F0FBF7EDFD94FBED
S11353E0F5F005FB10400A25012190FBF5F0FBF7D1
S11353F0E3FD94FBF5F0002105FB1040FBF7DCFD19
S1135400012070BD7047FDF7F1BA704708B500F090
S11354100FF8BDE80840FDF7C5BA7047704708B5F6
S11354200123042207210520FCF730FF002008BDDA
S1135430FFF7F5BFFEE74FF4004070474FF47A7072
S11354407047FEE710B51446FEF724FB20600020E9
S113545010BD012303FA00F07047EFF3108072B619
S1135460704700B962B6704770B5054614460E46DB
S1135470FFF7F3FF29684C4034404C402C60BDE8F2
S11354807040FFF7EEBF03695B06FCD541637047CC
S113549013B50024032301A88DF805308DF80440CA
S11354A08DF80640FCF7D8FC6420FCF70FFD20467D
S11354B002B010BD70B50C46154610B9FDF738FAA8
S11354C038B143682BB12A462146BDE870400068D4
S11354D01847232070BDF7B50D4616461C4638B94B
S11354E0FDF726FA04B901AC20B9232003B0F0BDBE
S11354F003B901AC8768002FF7D02346324629460A
S11355000068B847F2E700207047FEE74FF4005305
S113551000204B60704701207047012070474FF016
S1135520FF3070470020704707B5002001AB0190A1
S1135530FFF7D1FF0198002808BF4FF0FF3003B0F8
S11355405DF804FB08B5FBF79BFEFFF75EFFFFF772
S11355505DFFFFF762FFBDE80840FFF75FBFFFF79D
S113556052BF08B54FF0E0231B69FEF7A7FA0128E4
S113557003D0BDE8084000F08EB908BDFEF798BA24
S11355804FF0FF3200F10803C0E9022343600361D6
S113559000230360704700230361704743689A68DF
S11355A04B608A609A6851609960036808610133AE
S11355B00360704730B50C68631C0AD103695A68EC
S11355C04A6091608B60596003680861013303602D
S11355D030BD00F10802134652681568A542FAD995
S11355E0EDE70369D0E901128A605160596881428C
S11355F008BF5A60002202611A68013A1A601868EA
S1135600704710B50446FEF76BFDA46BFEF786FDEC
S1135610B4FA84F0400910BDF8B51546026C04468E
S1135620866B52B9076847BB8068FEF795FA054652
S1135630A76001362846A663F8BD65B9406800F046
S113564040F96368226C1344A26863609342F0D308
S113565023686360EDE7C06800F033F9226CE36807
S113566051429B1A2268E36093423EBFA3685B18D1
S1135670E360022D01D116B1013E0025D9E735467C
S1135680D7E710B403461A6C084662B1DC6899681F
S113569014448C4228BF1968DC6028BFD960D968DB
S11356A010BC00F00EB910BC704770B50446FEF78C
S11356B017FD94F8455004F124066DB2002D14DC56
S11356C0FF2384F84530FEF729FDFEF709FD94F821
S11356D0445004F110066DB2002D12DCFF2384F84F
S11356E04430BDE87040FEF719BD636A002BE7D073
S11356F03046FEF749F908B1FEF7C6F9013D6DB22F
S1135700DCE72369002BE9D03046FEF73DF908B108
S1135710FEF7BAF9013D6DB2DEE710B5002102468D
S11357200120FDF723FA044638B100231A4619462E
S113573083600360C360FDF753FA204610BD70B563
S113574004460D461646FEF7CBFC94F84430FF2B76
S113575004BF002384F8443094F84530FF2B04BF81
S1135760002384F84530FEF7D9FCA36B2BB93246ED
S1135770294604F12400FEF7E7F82046BDE870400E
S1135780FFF793BF2DE9F0470D46DDE909844FEAA1
S113579082094A460646A521206B1F4600F09FF861
S11357A0226BA9F10409914429F00709002D42D084
S11357B06B1E04F13402093513F8010F02F8010BD2
S11357C008B1AB42F8D1002384F83D30089D4FF076
S11357D0000A372D28BF3725201DE562A564C4F8CB
S11357E04CA0FFF7D8FEC5F1380504F11800FFF707
S11357F0D2FE082251462461A561646204F150007E
S113580000F06DF80422514604F1580000F067F8E6
S11358100122514604F15C0000F061F83A46314639
S11358204846FEF74BFC2060B8F1000F01D0C8F8E1
S11358300040BDE8F08784F83450C7E72DE9F04311
S113584085B007469000884616469946FEF712FD35
S11358500546E8B16020FEF70DFD0446A8B100231B
S113586080F85D300D9B056301930C9B32464146E5
S11358700290009338464B46FFF784FF2046FDF71D
S113588009FC012005B0BDE8F0832846FEF74AFD77
S11358904FF0FF30F6E708B54FF0600383F311884B
S11358A0BFF36F8FBFF34F8FFDF762FE28B14FF048
S11358B0E0234FF08052C3F8042D002383F31188B2
S11358C008BD0A44914200F1FF3300D1704710B57E
S11358D011F8014B914203F8014FF9D110BD034671
S11358E00244934200D1704703F8011BF9E7682290
S11358F070B54D1E55430E4605F17401FFF7CCF803
S1135900044640B10021C0E900160C30A06005F146
S11359106802FFF7E4FF204670BD2DE9F843064610
S11359208846002700F14804D4E90195B9F101093A
S113593005D52468002CF7D13846BDE8F883AB8937
S1135940012B07D9B5F90E30013303D0294630466F
S1135950C04707436835E9E770477047704770B53B
S11359600E46B1F90E10144600291D4696B008DA09
S11359700022B6F90C302A601A0610D44FF4806362
S11359800EE06A46FFF744FC0028F1DB019A02F4BA
S11359907042A2F500535A425A412A60EEE740236E
S11359A00020236016B070BD936810B4013B002B37
S11359B0936007DA9469A34201DB0A2902D110BC7F
S11359C0FFF744BB1368581C10601970084610BCDC
S11359D07047F8B506460F461446D518AC4201D1B7
S11359E0002007E03A46304614F8011BFFF7DCFFBD
S11359F0431CF3D1F8BD2DE9F047164699468A6851
S1135A000B6907469342B8BF1346336091F84320AD
S1135A100C46DDF820800AB101333360236899060F
S1135A2042BF336802333360256815F0060506D19A
S1135A3004F1190AE36832689B1AAB4228DC94F833
S1135A404320131E226818BF012392062DD4494611
S1135A50384604F14302C047013020D02368E5688A
S1135A6003F00603042B18BF002532684FF000062C
S1135A70A36808BFAD1A226908BF25EAE5759342F9
S1135A80C4BF9B1AED181A34B5421AD1002008E09D
S1135A900123524649463846C047013003D14FF0EE
S1135AA0FF30BDE8F0870135C4E73020E11881F804
S1135AB043005A1C94F845102244023382F84310E0
S1135AC0C5E70123224649463846C0470130E6D09F
S1135AD00136D9E710B50C46B1F90E10FFF7D8FB23
S1135AE00028ABBF636DA3891B1823F48053ACBF9C
S1135AF06365A38110BD2DE9F0411F468B890546DE
S1135B00DB050C46164605D502230022B1F90E101A
S1135B10FFF7A0FBA389324623F48053A3812846D0
S1135B203B46B4F90E10BDE8F041FFF7E1BA10B5F9
S1135B300C46B1F90E10FFF78DFB431CA38915BF6A
S1135B40606523F4805343F48053A38118BFA38179
S1135B5010BDB1F90E10FFF74BBB062008B5FFF7D7
S1135B60A9FB0120FFF7D1FC034610B5C9B20244DA
S1135B709342184601D1002003E0047801338C429B
S1135B80F6D110BD1F2938B504460D4604D9162395
S1135B9003604FF0FF3038BD426C12B152F821302F
S1135BA04BB9204600F016F82A4601462046BDE8C7
S1135BB03840FFF787BB012B0AD0591C03D11623A9
S1135BC003600120E7E70024284642F8254098476F
S1135BD00020E0E7FFF79FBCF8B500BFF8BC08BCA5
S1135BE09E467047F8B500BFF8BC08BC9E46704797
S1135BF0050000000000000000C2010000050000D4
S1135C000010000000000000000000000D00000073
S1135C10010000000D000000020000000900000067
S1135C20020000000C00000003000000020000005D
S1135C300300000003000000050000000100000054
S1135C400600000001000000000000000600000043
S1135C500000000005000000000000000200000039
S1135C600000000003000000030000000700000023
S1135C70030000000A00000005000000010000000D
S1135C800600000001000000010000000D000000FB
S1135C90020000000D0000000300000002000000EC
S1135CA003000000030000000400000002000000E4
S1135CB004000000030000000600000007000000CC
S1135CC0060000000A0000000000000001000000BF
S1135CD001000000010000000200000009000000B3
S1135CE0020000000C00000004000000040000009A
